:020000040800F2
:1000000070040020C1010008750F0008710F00087E
:10001000730F0008CD020008DD1400080000000086
:10002000000000000000000000000000990F000820
:10003000CF02000800000000970F00089B0F000887
:10004000DB010008DB010008DB010008DB01000820
:10005000DB010008DB010008DB010008DB01000810
:10006000DB010008DB010008DB010008DB01000800
:10007000DB010008DB010008DB010008DB010008F0
:10008000DB010008DB010008DB010008DB010008E0
:10009000DB010008DB010008DB010008DB010008D0
:1000A000DB010008DB010008DB010008DB010008C0
:1000B000DB010008DB010008DB010008DB010008B0
:1000C000DB010008DB010008DB010008DB010008A0
:1000D000DB010008D1140008DB010008DB01000887
:1000E000DB010008DB010008DB010008DB01000880
:1000F000DB010008DB010008DB010008DB01000870
:10010000DB010008DB010008DB010008DB0100085F
:10011000DB010008DB010008DB010008DB0100084F
:10012000DB010008DB010008DB010008DB0100083F
:10013000DB010008DB010008DB010008DB0100082F
:10014000DB010008DB010008DB010008DB0100081F
:10015000DB010008DB010008DB010008DB0100080F
:10016000DB010008DB010008DB010008DB010008FF
:10017000DB010008DB010008DB01000800000000D3
:10018000DB010008DB010008DB010008DB010008DF
:10019000DB010008DB010008DB010008DB010008CF
:1001A000DB010008DB010008DB010008DFF80CD0F0
:1001B00000F07AF800480047FD14000870040020A1
:1001C0000648804706480047FEE7FEE7FEE7FEE7F1
:1001D000FEE7FEE7FEE7FEE7FEE7FEE75110000858
:1001E000AD0100082DE9F05F0546002092469B46D0
:1001F00088460646814640241BE02846414647463D
:10020000224600F041F853465A46C01A914110D395
:1002100011461846224600F028F82D1A67EB01080F
:100220004F4622460120002100F01FF817EB00097D
:100230004E41201EA4F10104DFDC484631462A4627
:100240004346BDE8F09F30B505462A460B4612F8F6
:10025000010B13F8014B08B1A042F8D01CB10028E3
:1002600002D06D1CF1E7284630BD202A04DB203A7D
:1002700000FA02F1002070479140C2F1200320FAF9
:1002800003F3194390407047202A04DB203A21FAF7
:1002900002F00021704721FA02F3D040C2F120029F
:1002A0009140084319467047064C074D06E0E06848
:1002B00040F0010394E8070098471034AC42F6D3AD
:1002C000FFF778FF90150008B0150008FEE77047AB
:1002D00090F83510022903D0802141650120704734
:1002E000052180F835100068016821F001010160E6
:1002F000002070472DE9F84FDFF890B100224FF051
:1003000001084FF0030A4FF00F090BF1040E00BF74
:100310000B6808FA02F42340A3426ED14D68022D07
:1003200001D0122D0ED1D50800EB850CDCF8205041
:100330005607F70E09FA07F6B5430E69BE402E437D
:10034000CCF82060066855000F790AFA05FC07F022
:10035000030726EA0C06AF40374307604E68012EBC
:1003600005D0022E03D0112E01D0122E0ED1876897
:10037000CE6827EA0C07AE403E4386604668A64337
:100380000C79C4F30014944034434460C4688E680C
:1003900024EA0C04AE402643C6604C68E4006FD5E6
:1003A0003B4C256845F480452560246822F0030510
:1003B00004F480440094374C2E19D6F80848950769
:1003C0002F0F09FA07F5AC43334DA84201D10025A0
:1003D0002EE0324DA84201D1012529E0304DA8423E
:1003E00001D1022524E02F4DA84201D103251FE0B1
:1003F0002D4DA84202D104251AE041E02B4DA84220
:1004000001D1052514E02A4DA84201D106250FE0AF
:10041000284DA84201D107250AE0274DA84201D165
:10042000082505E0254DA84201D1092500E00A254F
:10043000BD402543C6F80858DBF800405D464E68CD
:100440009C43F60300D51C432C60DEF80040754643
:100450004E689C43B60300D51C432C600B4D0835F9
:100460002C684E689C43F60200D51C432C60074D57
:100470000C352C684E689C43B60200D51C432C609A
:10048000521C102AFFF444AFBDE8F88F003C014035
:1004900044380240003001400000024000040240A5
:1004A00000080240000C024000100240001402400C
:1004B00000180240001C02400020024000240240BC
:1004C00001488068704700000C00002002488168E5
:1004D00002781144816070470C0000200B4810B571
:1004E000016841F400710160016841F480610160BC
:1004F000016841F480710160032000F097F800204A
:1005000000F006F800F024F8002010BD003C024086
:1005100070B50D4D04464FF47A712878B1FBF0F0B8
:100520000A490968B1FBF0F000F055FB48B9102CFE
:1005300007D200222146501E00F058F800206C60BF
:1005400070BD012070BD00000C00002018000020CC
:100550001F4808B5016841F480410160006800F45B
:10056000804000901A48001F016841F080510160EE
:10057000006800F080500090032000F057F800223F
:1005800011466FF00B0000F031F8002211466FF0B9
:100590000A0000F02BF8002211466FF0090000F06D
:1005A00025F800221146501F00F020F800221146C5
:1005B000101F00F01BF800221146901E00F016F8E4
:1005C0000022BDE808401146501E00F00FB80000A0
:1005D0004438024000F01F02012191404009800090
:1005E00000F1E020C0F8001170470000F0B40E4B9D
:1005F0001B680C46C3F30223C3F10705042D00D981
:100600000425191D072901D2002300E0DB1E012665
:1006100006FA05F1491E214099409E40761E16407B
:100620003143F0BC00F0A7BC0CED00E0064900F03F
:10063000070208684FF6FF03184040EA0220034A09
:1006400010430860704700000CED00E00000FA0560
:100650002DE9F8431748016841F0805101600068B6
:10066000154F00F08050012600903E64FFF728FFF0
:1006700005464FF47A78114C05E000BFFFF720FFE4
:10068000401B40450DD86068C003F7D57E64FFF776
:1006900017FF0546464607E0FFF712FF401BB04232
:1006A00002D90320BDE8F88360688003F4D50020F8
:1006B000F8E700004038024000000E4200700040A1
:1006C0002DE9F0470E46050065D0DFF81481D8F813
:1006D0000000F7B200F00F00B04207D288F80070B7
:1006E000D8F8000000F00F00B04254D128683D4C0B
:1006F000810712D5400703D5206840F4E050206000
:100700002878000703D5206840F460402060206806
:10071000A96820F0F000084320602878C0072DD099
:10072000304968680839012812D0022813D00328FC
:1007300011D00968890700292DDA216821F0030109
:1007400001432160FFF7BCFE814641F2883A0EE08A
:1007500009688903EFE709688901ECE7FFF7B0FE54
:10076000A0EB0901514502D90320BDE8F0872068BC
:10077000696800F00C00B0EB810FEFD1D8F80010E1
:10078000404601F00F01B14207D90770006800F040
:100790000F00B04201D00120E7E72878400705D5D7
:1007A0002068E96820F4E0500843206028780007BA
:1007B00006D52068296920F4604040EAC100206025
:1007C00000F03CF82168084AC1F30311515CC840AD
:1007D000064908600020FFF79BFE0020C5E70000E7
:1007E000003C02400838024078150008180000203C
:1007F00001480068704700001800002004480549BF
:1008000000680968044AC1F38221515CC8407047FE
:1008100018000020083802408815000804480549DF
:1008200000680968044AC1F34231515CC84070470E
:10083000180000200838024088150008154810B537
:10084000006810F00C02144813D01449042A0FD089
:10085000082A0ED10F4C241F2268236802F03F02A1
:100860005B0207D52068C0F38810A0FB010106E0F9
:10087000084610BD2168C1F38811A1FB00010023C7
:10088000FFF7B0FC2168C1F30141491C4900B0FBEE
:10089000F1F010BD083802400024F40040787D01DA
:1008A0002DE9F84F050076D02878DFF8F8B2BE4C75
:1008B000C00749D0DBF800105846C1F38101012977
:1008C00008D00068C0F3810002280AD1201D00680A
:1008D000400206D52068800336D568680028E2D03B
:1008E00032E06868B0F5803F10D0B0F5A02F2068E6
:1008F00010D020F480302060206820F48020206018
:100900006868A0B1FFF7DCFD06460CE0206840F403
:100910008030F4E740F480202060F7E7FFF7D0FD57
:10092000801B642873D820688003F7D50CE0FFF79C
:10093000C7FD064605E000BFFFF7C2FD801B642827
:10094000F0D820688003F7D42878DFF86082800729
:100950004FF000093ED5DBF80010584611F00C0F9F
:1009600009D00068C0F3810002280BD18D48001F18
:100970000068400206D42068800715D5E868012881
:1009800009D111E0E868B8B10120C8F80000FFF70C
:1009900097FD064605E002E1FFF792FD801B022865
:1009A000C0D820688007F7D52068296920F0F800B2
:1009B00040EAC10020600DE0C8F80090FFF780FD1C
:1009C000064604E0FFF77CFD801B02281FD8206844
:1009D0008007F7D42878000722D5724E74486969D9
:1009E0006C3671B101210160FFF76AFD074604E032
:1009F000FFF766FDC01B022809D830688007F7D5CD
:100A00000EE0C0F80090FFF75BFD074605E083E0CD
:100A1000FFF756FDC01B02287ED830688007F7D448
:100A20002878400768D5DFF87CA100270AF1380A4A
:100A3000DAF80000C0000BD4DAF8001041F0805161
:100A4000CAF80010DAF80000012700F0805000908A
:100A5000584E3068C00510D4306840F48070306063
:100A6000FFF72EFD009005E0FFF72AFD0099401AE0
:100A7000022851D83068C005F6D54A4EA8686836B5
:100A800001280FD00528306810D020F00100306018
:100A9000306820F004003060A868B8B1FFF710FD9E
:100AA00000900FE0306840F00100F4E740F00400EF
:100AB0003060F7E7FFF704FD0099411A41F28830F2
:100AC000814264D830688007F4D50EE0FFF7F8FC67
:100AD000009007E0FFF7F4FC0099411A41F28830DA
:100AE000814254D830688007F4D42FB1DAF800106E
:100AF00021F08051CAF80010A869C0B3DBF80010DB
:100B0000C1F3810102294AD00228484607D0C8F81B
:100B10006000FFF7D5FC00E039E005463AE04746C3
:100B2000C8F86000FFF7CCFC064604E0FFF7C8FCFD
:100B3000801B02282BD820688001F7D4D5E9070153
:100B40000843A96A1C4A490802EB01416A6A41EA62
:100B50008211084395F82C1040EA01611148001FEA
:100B6000016001203866FFF7ABFC054605E014E0A4
:100B7000FFF7A6FC401B022809D820688001F7D5A2
:100B80000BE000BFFFF79CFC401B022802D90320AA
:100B9000BDE8F88F20688001F4D40020F8E7012038
:100BA000F6E70000083802400038024000004742E3
:100BB000800E4742007000400000FFFF4FF0E02130
:100BC0000428086903D020F004000861704740F051
:100BD0000400FAE7704710B5401EB0F1807F01D3E2
:100BE000012010BD4FF0E02460610F21601700F07C
:100BF000C2F90020A06107202061002010BD10B5BF
:100C0000FFF7E8FF10BD704770B502680446106832
:100C1000D168536910F00F0F50D003F0010501F4B3
:100C2000907635435DD0C20705D0CA0503D5E26B87
:100C300042F00102E263420705D5DA0703D0E26B16
:100C400042F00202E263820705D5DA0703D0E26BC5
:100C500042F00402E263020705D5DA0703D0E26B33
:100C600042F00802E263E26B002A33D0800604D52A
:100C7000880602D5204600F02BFA20684069E16B17
:100C8000C0F38010090700D428B3204600F012FA00
:100C90002068416949061AD5416921F04001416146
:100CA000606BA0B11B490165606BFFF711FB002869
:100CB00010D0606B016DBDE870400847830610D509
:100CC0008B060ED52046BDE8704000F001BA2046E4
:100CD000FFF799FF70BD2046FFF795FF0020E06306
:100CE00070BD030606D50B0604D52046BDE870404E
:100CF00000F08ABB4006F3D54806F1D5D1682046FE
:100D000021F04001D160202184F8391000F02FF942
:100D100070BD0000A510000870B5040004D094F860
:100D20003900002510B106E0012070BD84F838506C
:100D3000204600F023F8242084F839002068C16898
:100D400021F40051C160204600F008FA20680169D2
:100D500021F4904101612068416921F02A0141613B
:100D60002068C16841F40051C160E563202084F827
:100D7000390084F83A00002070BD000000B500681A
:100D8000124987B088421FD11148016841F0100113
:100D900001600068694600F0100005904FF4C060E3
:100DA0000090022001900120029003200390072070
:100DB00004900848FFF79EFA002211462520FFF70D
:100DC00015FC2520FFF706FC07B000BD0010014010
:100DD000443802400000024090F83A30202B1DD1E8
:100DE000D1B1CAB190F83830012B17D08162828519
:100DF000C2850021C163222280F83A2080F8381091
:100E000001684A6942F001024A610068C16841F420
:100E10009071C16000207047012070470220704728
:100E200010B5164A16490020135C0B54401C0528C7
:100E3000FADB002048711249891F881DFFF703FA69
:100E40004FF6FF7423464FF0080240B10B480DA146
:100E5000403800F02FF8234608220DA107E007488C
:100E60000EA1403800F026F8234608220EA10348C0
:100E7000BDE81040403800F01DB800005C000020C4
:100E8000060000204842313D302E380A00000000A4
:100E90004842323D302E360A000000004842313DC3
:100EA000302E320A000000004842323D302E320A15
:100EB000000000002DE9F843044690F839001F4671
:100EC00016460D46202850D1A5B19EB194F83800A1
:100ED00001284AD0012084F838004FF00008C4F8F7
:100EE0003C80212084F83900FFF7EAFAA684814685
:100EF000E68426E00120BDE8F883E08C401EE08413
:100F0000A0684B46B0F5805F4FF000024FF08001C3
:100F10002046009703D000F0A8FAE8B90DE000F0F1
:100F2000A4FAC8B928882168C0F30800486020697D
:100F300008B16D1C05E0AD1C03E0216815F8010B3C
:100F40004860E08C0028D8D14B4600224021204642
:100F5000009700F08AFA08B10320CCE7202084F83B
:100F6000390084F838800020C5E70220C3E77047C5
:100F7000FEE7FEE770470907090E002806DA00F0D1
:100F80000F0000F1E02080F8141D704700F1E02010
:100F900080F8001470477047704710B5FFF796FA55
:100FA000BDE81040FFF72BBE30B5274893B00025B1
:100FB000016841F080510160006800F0805011909C
:100FC0002248016841F4404101600068022400F4B5
:100FD0004040119001200090000401908001CDE973
:100FE0000640192008904FF4B470CDE9090404209C
:100FF0000B906846FFF754FC00B1FEE7FFF728FBB3
:1010000000B1FEE70CA90F2081E831004FF4A05099
:101010000F904FF48050109005210CA8FFF750FB63
:1010200000B1FEE7FFF7E4FB4FF47A71B0FBF1F09B
:10103000FFF7D1FD0420FFF7C1FD00221146501E2D
:10104000FFF7D4FA13B030BD4038024000700040C2
:101050001048016841F4700101600F48016841F0D7
:10106000010101600C4A00210832116002680B4B3B
:101070001A400260031D0A4A1A60026822F48022A4
:10108000026005480C30016002495806803908604A
:101090007047000088ED00E000380240FFFFF6FED8
:1010A0001030002410B5806B0021C185C184FFF78A
:1010B000AAFD10BD0168CA6822F49072CA60016876
:1010C0004A6922F001024A61202180F83A107047F3
:1010D00010B590F83A10222901D0022010BD816885
:1010E000B1F5805F11D00169002901681FD04968FE
:1010F00001F07F03816A4A1C82620B70C18D491E18
:101100000904090CC18518D026E00269816A002A09
:101110000268526805D0D2B20A80816A491C816295
:10112000ECE7C2F308020A80816A891CF7E74A6883
:10113000816A4B1C83620A70E0E70168CA6822F486
:101140009072CA6001684A6922F001024A61202156
:1011500080F83A10FFF764FE002010BD2DE9F04141
:1011600004460068016921F44052E16811430161BD
:101170002168C86849F20C6290432369A268E56956
:101180001A4363692B431A430243CA6021684869C2
:1011900020F44072A06910434861E1696425B1F50B
:1011A000004F9748974A21684FF032083FD091424C
:1011B00001D081427CD1FFF731FB00EBC00101EB94
:1011C000001061688900B0FBF1F6FFF727FB00EB28
:1011D000C00101EB001061688900B0FBF1F0B0FBC9
:1011E000F5F06FF01801484306EB800108EB0110A1
:1011F000B0FBF5F000F0F006FFF710FB00EBC001CC
:1012000001EB001061688900B0FBF1F0B0FBF5F074
:1012100006EB0016FFF702FB00EBC00101EB00102C
:1012200061688900B0FBF1F7FFF7F8FAD2E091426C
:1012300001D081423DD1FFF7F1FA00EBC00101EB93
:10124000001061684900B0FBF1F0B0FBF5F0060159
:10125000FFF7E4FA00EBC00101EB00106168490000
:10126000B0FBF1F7FFF7DAFA00EBC00101EB001079
:1012700061684900B0FBF1F0B0FBF5F06FF01801C8
:10128000484307EB800108EBC100B0FBF5F000F02C
:10129000F80006EB4006FFF7C1FA00EBC00101EBD6
:1012A000001061684900B0FBF1F7FFF7B7FA3CE0C6
:1012B00055E0FFF7A3FA00EBC00101EB00106168F5
:1012C0004900B0FBF1F0B0FBF5F00601FFF796FA2C
:1012D00000EBC00101EB001061684900B0FBF1F7C1
:1012E000FFF78CFA00EBC00101EB001061684900C8
:1012F000B0FBF1F0B0FBF5F06FF01801484307EBDD
:10130000800108EBC100B0FBF5F000F0F80006EB3F
:101310004006FFF773FA00EBC00101EB00106168B3
:101320004900B0FBF1F7FFF769FA00EBC00101EBF0
:10133000001061684900B0FBF1F0B0FBF5F06FF010
:101340001801484307EB800108EBC100B0FBF5F042
:1013500000F00700216830448860BDE8F081FFF7A5
:101360004DFA00EBC00101EB001061688900B0FB91
:10137000F1F6FFF743FA00EBC00101EB00106168E2
:101380008900B0FBF1F0B0FBF5F06FF018014843B5
:1013900006EB800108EB0110B0FBF5F000F0F00661
:1013A000FFF72CFA00EBC00101EB00106168890027
:1013B000B0FBF1F0B0FBF5F006EB0016FFF71EFAFC
:1013C00000EBC00101EB001061688900B0FBF1F790
:1013D000FFF714FA00EBC00101EB0010616889000F
:1013E000B0FBF1F0B0FBF5F06FF01801484307EBEC
:1013F000800108EB0110B0FBF5F000F00F00A9E749
:10140000001401400010014090F83910212901D04A
:10141000022070478168B1F5805F016A0BD04A1CD9
:101420000262026809785160C18C491E0904090CE6
:10143000C1840ED017E009880268C1F30801516029
:1014400001690029016A02D0491C0162ECE7891C8C
:10145000FBE70168CA6822F08002CA600068C168C0
:1014600041F04001C160002070472DE9F0419846ED
:1014700017460E460446069D1DE0681C1BD02DB184
:10148000FFF71EF8A0EB0800A84214D92068C16835
:1014900021F4D071C1602068416921F001014161EE
:1014A000202084F8390084F83A00002084F83800BD
:1014B0000320BDE8F0812068006836EA000004D00F
:1014C0000020B842D9D00020F3E70120F9E700005E
:1014D0000148FFF799BB00001C000020FEE702E076
:1014E00008C8121F08C1002AFAD1704770470020AF
:1014F00001E001C1121F002AFBD1704708B5FEF7B9
:10150000EDFFFFF751FD19480021026842F0040287
:101510000260026802F004020092026842F0800257
:101520000260026802F080020092026842F001024A
:10153000026000680E4A00F0010000900D48026051
:101540004FF4E132C0E901210C22C160C0E904126C
:101550008161C161FFF7E0FB00B1FEE705490522AB
:1015600040310448FFF738FCF8E70000303802400B
:10157000001001401C0000200000000000000000DE
:101580000102030406070809000000000102030429
:10159000B0150008000000201C000000DE14000848
:1015A000CC1500081C00002054040000EE140008B4
:1015B00073746172740000000000000001000000FC
:0C15C00010000000000000000024F400F7
:04000005080001AD41
:00000001FF
